:020000040000FA
:10000000E06C00206D02000081020000830200000D
:10001000850200008502000085020000000000004B
:100020000000000000000000000000008502000049
:10003000850200000000000085020000850200002B
:100040008502000085020000850200008502000094
:100050008502000085020000850200008502000084
:100060008502000085020000850200008502000074
:100070008502000085020000850200008502000064
:100080008502000085020000850200008502000054
:100090008502000085020000850200008502000044
:1000A0008502000085020000850200008502000034
:1000B0008502000085020000850200008502000024
:1000C0008502000085020000850200008502000014
:1000D0008502000085020000850200008502000004
:1000E000850200008502000000000000850200007B
:1000F00085020000850200008502000085020000E4
:1001000085020000850200008502000085020000D3
:1001100000000000000000008502000085020000D1
:1001200085020000850200008502000085020000B3
:1001300085020000850200008502000085020000A3
:1001400000000000000000000000000000000000AF
:100150008502000085020000850200008502000083
:10016000000000000000000000000000000000008F
:10017000000000000000000000000000000000007F
:10018000000000000000000000000000000000006F
:10019000000000000000000000000000000000005F
:1001A000000000000000000000000000000000004F
:1001B0008502000085020000850200008502000023
:1001C0008502000085020000850200008502000013
:1001D0008502000085020000850200008502000003
:1001E000850200008502000085020000000000007A
:1001F000000000008502000085020000850200006A
:1002000085020000850200000000000000000000E0
:1002100085020000850200008502000085020000C2
:1002200085020000850200008502000085020000B2
:1002300085020000850200008502000085020000A2
:100240008502000085020000850200008502000092
:100250008502000085020000850200008502000082
:100260008502000085020000850200004EF68850DD
:10027000CEF20000016841F47001016000F004B8A2
:10028000FEE7FEE7FEE7000000F002F800F05CF891
:100290000AA090E8000C82448344AAF10107DA45E1
:1002A00001D100F051F8AFF2090EBAE80F0013F0D7
:1002B000010F18BFFB1A43F001031847604D0200FD
:1002C000804D02000A444FF0000C10F8013B13F07F
:1002D000070408BF10F8014B1D1108BF10F8015B9F
:1002E000641E05D010F8016B641E01F8016BF9D192
:1002F00013F0080F1EBF10F8014BAD1C0C1B09D1E9
:100300006D1E58BF01F801CBFAD505E014F8016B5A
:1003100001F8016B6D1EF9D59142D6D370470000EC
:100320000023002400250026103A28BF78C1FBD8FE
:10033000520728BF30C148BF0B6070471FB522F07D
:100340004EF81FBD10B510BD00F017F91146FFF7AC
:10035000F5FF1FF0B1FC00F035F903B4FFF7F2FF31
:1003600003BC00F039F90000EFF3108072B670475B
:10037000EFF310807047EFF3108062B6704730BF24
:10038000704780F311887047EFF3118070470000C9
:100390000138FDD17047000002480349034A044B6D
:1003A00070470000E0660020E06C0020E06800205C
:1003B000E0680020032A40F2308010F0030C00F0C7
:1003C000158011F8013BBCF1020F624498BF11F88F
:1003D00001CB00F8013B38BF11F8013BA2F1040248
:1003E00098BF00F801CB38BF00F8013B11F00303C0
:1003F00000F02980083AC0F0088051F8043B083A20
:1004000051F804CBA0E80810F5E7121D5CBF51F8C5
:10041000043B40F8043BAFF30080D20724BF11F83F
:10042000013B11F801CB48BF11F8012B24BF00F8A4
:10043000013B00F801CB48BF00F8012B704701B524
:10044000FFF7B8FF01BD10B5203AC0F00B80B1E84E
:100450001850203AA0E81850B1E81850A0E81850F9
:10046000BFF4F5AF5FEA027C24BFB1E81850A0E802
:10047000185044BF18C918C0BDE810405FEA827C1C
:1004800024BF51F8043B40F8043B08BF7047D20733
:1004900028BF31F8023B48BF11F8012B28BF20F8D4
:1004A000023B48BF00F8012B704702F0FF0343EA0C
:1004B000032242EA024200F002B84FF0000204298F
:1004C000C0F0128010F0030C00F01B80CCF1040C83
:1004D000BCF1020F18BF00F8012BA8BF20F8022BB7
:1004E000A1EB0C0100F00DB85FEAC17C24BF00F85D
:1004F000012B00F8012B48BF00F8012B70474FF08B
:10050000000200B5134694469646203922BFA0E863
:100510000C50A0E80C50B1F12001BFF4F7AF09076F
:1005200028BFA0E80C5048BF0CC05DF804EB890060
:1005300028BF40F8042B08BF704748BF20F8022BA3
:1005400011F0804F18BF00F8012B704770477047BB
:10055000704710B500F00CF8006810BD10B50446E7
:1005600000F006F8046010BD004870478066002067
:10057000004870478066002070477546FFF7F4FF1B
:10058000AE4605006946534620F00700854618B080
:1005900020B5FFF701FFBDE820404FF000064FF007
:1005A00000074FF000084FF0000B21F00701AC46A8
:1005B000ACE8C009ACE8C009ACE8C009ACE8C009C7
:1005C0008D46704710B50446AFF300802046BDE865
:1005D0001040FFF7C2BE000001491820ABBEFEE785
:1005E0002600020010B5064818F038F8002105482A
:1005F00000F00CF8044A0021024800F04DF810BD4C
:10060000A44A002000800340844A002001228A403E
:10061000C260704701228A40C260826801238B4019
:100620001A438260704782680A43826070472DE9EE
:10063000F04105460E461446314628461CF0ACF9FA
:1006400007462146384606F057FC384606F0E2FBDE
:10065000BDE8F08110B50A0C120401F00F0401236B
:10066000A3401A43836A1A43826210BD30B58900E1
:1006700044690F258D40AC4302F00F058D402C439B
:100680004461056A0F248C4025EA040403F0030545
:100690008D402C43046230BD10B503464C014034FC
:1006A0002344002002E09C6810C2401CDC6804F473
:1006B00080740CB90828F6D310BD026801238B4062
:1006C0001A430260704770B50C46650140352844F6
:1006D000920005680F269640B54303F00F0696403A
:1006E0003543056086690F25954026EA0505C3F365
:1006F000032696403543856146680F25954026EAD6
:100700000505C3F3031696403543456003F4702591
:1007100075B141690F259540A943C3F30245954042
:10072000294341610669012595402E43066104E095
:10073000066901259540AE43066170BD1048114918
:100740004860082088600120487088700C480E4975
:1007500048600820886001204870887008480B496C
:100760004860082088600120487088700448084963
:100770004860082088600120487088707047000039
:1007800000700040EC6500200C6600202C66002004
:100790004C660020524890ED010AB8EE400ADFEDA9
:1007A000510A20EE200ADFED500A80EE201A4F4851
:1007B00080ED001A90ED000ADFED4D0AB4EEE00A7C
:1007C000F1EE10FA03DB00204A4908703AE047488E
:1007D00090ED000ADFED480AB4EEE00AF1EE10FAFF
:1007E00003DB0120434908702CE0404890ED000AEB
:1007F000F7EE080AB4EEE00AF1EE10FA03DB02208D
:100800003C4908701EE0394890ED000AF7EE000AF6
:10081000B4EEE00AF1EE10FA03DB0320354908706C
:1008200010E0324890ED000AF6EE000AB4EEE00A5D
:10083000F1EE10FA03DB04202E49087002E00020DC
:100840002C4908702B48007805283CD2DFE800F0DE
:10085000030D1824300001202849487028494870A9
:10086000284948702849487037E0002023494870DB
:1008700001202349487023494870234948702CE0DF
:1008800001201E49487000201D49487001201D4963
:1008900048701D49487020E00120184948701849E7
:1008A000487000201749487001201749487014E02B
:1008B00001201249487012494870124948700020BE
:1008C0001149487009E001200C4948700C494870F2
:1008D0000C4948700C49487000BF00BF70470000C9
:1008E000844A00203333534000F07F452005002028
:1008F000666646402A0E00209A993940EC65002031
:100900000C6600202C6600204C66002010B5FFF716
:1009100041FF14F01FFD10BD10B5234817F05EFA1B
:1009200000BF214817F074FA0028FAD01F4817F0CA
:1009300055FA08211E4804F0C1FC1C48401E17F05F
:100940004DFA08211B4804F0B9FC00231A46194649
:100950001948FFF78BFE00231A4619461648FFF781
:10096000B2FE6423012200211348FFF7ACFE0021F0
:100970001148FFF74BFE00210F48FFF79EFE0021B4
:100980000D48FFF747FE01210B48FFF74CFE1E20E4
:1009900006F040FA094A00210748FFF748FEE02127
:1009A0001E2006F08FFA10BD003800F0040800F099
:1009B000004002400070004000800340E505000058
:1009C00010B509480088401C07490880084600887F
:1009D000022800DC10BD00200349088000210348E4
:1009E000FFF738FE00BFF5E7280500200080034030
:1009F00030B587B0002400200490059006907F4811
:100A00000078052873DC002039E07D4991ED000A6B
:100A1000F3EE040AB4EEE00AF1EE10FA2AD87949AE
:100A200091F86410012925D100241BE07549343167
:100A300001EB840191ED000ADFED730A60EE200AFC
:100A40009FED721A80EE810A04A901EB8401D1EDB9
:100A5000000A30EE200A04A901EB840181ED000AAE
:100A6000611C8CB2032CE1DB411C88B20021654A79
:100A700082F864100121664A604B1B78D154B0F5AE
:100A80007A7FC2DBDDED040A00EE100AB8EE400A00
:100A900080EE801A5949097801EB41015D4A02EB69
:100AA000810181ED001ADDED050A00EE100AB8EEB5
:100AB000400A80EE801A5149097801EB410102EBAE
:100AC000810181ED011ADDED060A00EE100AB8EE93
:100AD000400A80EE801A4949097801EB410102EB96
:100AE000810181ED021A0621444A117000BF484875
:100AF0000078474949780840454989780840444981
:100B0000C978084042490979084041494979084073
:100B1000002870D04048007800286CD101203E4960
:100B2000087000203D4908703D4A3E49394800F0B0
:100B3000E3FF3D490870002504E000203449485592
:100B4000681C85B2062DF8DB37480078012839D1BA
:100B50003448D0ED021AB0EE611AD0ED011AF0EE71
:100B6000610AD0ED001AB0EE610A304902201BF094
:100B700068FE2B48D0ED021AB0EE611AD0ED011AD2
:100B8000F0EE610AD0ED001AB0EE610A27490520A7
:100B90001BF057FE10F0A8FC002025490880022118
:100BA000244A0346B6EE000ACDE9002102904FF434
:100BB000FA6241F28831204800F0FDFC01201F4913
:100BC000487214E000201A4908800221194A03469D
:100BD0009FED1B0ACDE9002102904FF4FA6241F229
:100BE0008831154800F0E7FC0020164908800120F4
:100BF00007B030BDFFE70020FAE70000E100002069
:100C0000240D0020384300200AE81C410000004663
:100C1000E3000020A8120020E9000020E2000020EC
:100C2000D400002078120020E0000020B44A002008
:100C30006A010020005002402814002006520020C3
:100C4000CDCCCC3D560200203EB50024FE480088A5
:100C500000EE100AB8EE400ADFEDFC0AB4EEE00A3E
:100C6000F1EE10FA22D8FA4890ED000ADFEDF90A09
:100C7000B4EEE00AF1EE10FA18DBF74890ED000A46
:100C8000DFEDF60AB4EEE00AF1EE10FA0ED8F44801
:100C900090ED000ADFEDF30AB4EEE00AF1EE10FA8F
:100CA00004DBF1480088401CEF490880E6480088D2
:100CB00000EE100AB8EE400ADFEDE40AB4EEE00AF6
:100CC000F1EE10FA22D8E24890ED000ADFEDE10AD9
:100CD000B4EEE00AF1EE10FA18DBDF4890ED000AFE
:100CE000DFEDDE0AB4EEE00AF1EE10FA0ED8DC48D1
:100CF00090ED000ADFEDDB0AB4EEE00AF1EE10FA47
:100D000004DBD9480088B0F5167F03DAD7480078AD
:100D1000022852D1D648008800284ED10120D5495A
:100D20000880D54908700020D449087001200221AC
:100D3000D34A00239FEDD30ACDE9002102904FF45E
:100D40007A725100D04800F036FC0620CF49087076
:100D50000020CF490870C449088000241DE000200D
:100D6000CC4908559FEDCC0A04EB4400CB4901EB7C
:100D7000800080ED000A9FEDC80A04EB440001EBFF
:100D8000800080ED010A9FEDC40A04EB440001EBF2
:100D9000800080ED020A601C84B2062CDFDB0A2092
:100DA000BF490880012015F029F9012015F04EF9FE
:100DB0000020BC490880AD490870AF480078012880
:100DC0007ED1A148008800EE100AB8EE400ADFED9F
:100DD0009F0AB4EEE00AF1EE10FA19D89C4890EDA3
:100DE000000ADFEDB10AB4EEE00AF1EE10FA0FD816
:100DF000994890ED000AB5EEC00AF1EE10FA07D15D
:100E0000974890ED000AB5EEC00AF1EE10FA03D053
:100E1000A6480078012817D1A5480088401CA4499D
:100E2000088008460088142803DAA04800780128C2
:100E300006D10020954908709E4908809E49088087
:100E400000209A49087097E17F48008800EE100A58
:100E5000B8EE400ADFED7D0AB4EEE00AF1EE10FADA
:100E600019D87B4890ED000AB5EEC00AF1EE10FAF1
:100E700011D1794890ED000ADFED7A0AB4EEE00A6C
:100E8000F1EE10FA07DB764890ED000AB5EEC00AE5
:100E9000F1EE10FA03D08548007802281AD1844870
:100EA0000088401C8249088008460088142803DA1C
:100EB0007E480078022809D101207449087000E0BA
:100EC00061E100207B4908807B4908800020774948
:100ED000087051E15C48008800EE100AB8EE400A44
:100EE000DFED5A0AB4EEE00AF1EE10FA19D85848CC
:100EF00090ED000AB5EEC00AF1EE10FA11D1564895
:100F000090ED000ADFED550AB4EEE00AF1EE10FABA
:100F100007D8534890ED000AB5EEC00AF1EE10FA7A
:100F200003D062480078032818D161480088401C2B
:100F30005F49088008460088142803DA5B48007877
:100F4000032807D102205149087000205949088020
:100F5000594908800020554908700DE13A48008839
:100F600000EE100AB8EE400ADFED380AB4EEE00AEF
:100F7000F1EE10FA19D8364890ED000AB5EEC00A25
:100F8000F1EE10FA11D1344890ED000AB5EEC00A26
:100F9000F1EE10FA09D1324890ED000ADFED310A86
:100FA000B4EEE00AF1EE10FA03DA404800780428C3
:100FB00018D13F480088401C3D49088008460088F9
:100FC000142803DA39480078042807D103202F4970
:100FD00008700020374908803749088000203349CD
:100FE0000870C9E01848008800EE100AB8EE400A00
:100FF000DFED160AB4EEE00AF1EE10FA19D8144843
:1010000090ED000AB5EEC00AF1EE10FA11D11248C7
:1010100090ED000AB5EEC00AF1EE10FA09D11048C1
:1010200090ED000ADFED0D0AB4EEE00AF1EE10FAE1
:1010300003D91E480078052853D11D480088401C5C
:101040001B490880084639E0FA020020004083442A
:101050000403002000001643000300200000D2C15A
:10106000FC0200200000D241EA000020C909002053
:10107000180300206A010020E2000020E0000020A8
:1010800000500240CDCC4C3E28140020E10000204E
:10109000E9000020E300002000000000A81200206A
:1010A0005602002026030020000016C3CA090020B3
:1010B000EC000020200300202203002000881428D8
:1010C00003DA31480078052807D104202F49087039
:1010D00000202F4908802F49088000202A490870E5
:1010E0004AE02D48008800EE100AB8EE400A5FED95
:1010F000290AB4EEE00AF1EE10FA19D8274890ED6B
:10110000000A5FED2C0AB4EEE00AF1EE10FA0FDDF2
:10111000234890ED000AB5EEC00AF1EE10FA07D1AF
:10112000204890ED000AB5EEC00AF1EE10FA03D0A7
:1011300015480078062818D11B480088401C1A4919
:10114000088008460088142803DA0F48007806282B
:1011500007D105200D49087000200D4908800D4970
:10116000088000200849087006E00F49088800EB55
:10117000D07149100C4A11800B480088C82802DB46
:101180000020094908803EBDCA090020E100002076
:101190002003002022030020FA0200200403002084
:1011A00000030020FC020020EC00002000202E495B
:1011B000097901292BD12D4991ED000A2C4981EDA6
:1011C000000A31200AE0294991ED000A284924311A
:1011D00001EB800181ED000A411E88B20028F2DC9B
:1011E000224991ED000A224981ED090A1F4991ED3A
:1011F000000A204981EDFD0A1C4991ED000A1E49B3
:1012000081ED000A9FED1D0A81ED030A2AE01C49C9
:1012100091ED140A164981ED000A31200AE01849BF
:1012200091ED140A1249243101EB800181ED000A8D
:10123000411E88B20028F2DC114991ED140A0C49D4
:1012400081ED090A094991ED000A0A4981EDFD0A7B
:101250000B4991ED140A084981ED000A9FED070A38
:1012600081ED030A70470000340D0020C8040020FF
:101270004832002060220020A43900200000000035
:101280003843002010B52DED048B0446F0EE408A63
:10129000B0EE609AB0EE418A374880ED019AC0ED19
:1012A000558A364890ED000A3548D0ED000A30EEF8
:1012B000600A314880ED560A324890ED000A324803
:1012C000D0ED000A30EE600A2B4880ED020A00F5EE
:1012D000A8700FF02FF828480FF02CF8264890ED52
:1012E0000C0A80ED2B0A90ED600A80ED7F0A5CB35A
:1012F000012C3CD1B5EEC08AF1EE10FA1CD190ED74
:10130000A90AB5EEC00AF1EE10FA05D11F4890ED1A
:10131000000A194880EDA90A1C4890ED000A1648F9
:1013200080EDAA0A00F528700FF072FC124890EDCB
:10133000B40A80EDD30A06E09FED150A0E4880ED51
:10134000A90A80EDD38A12E00B4880EDA98A0F48E4
:1013500090ED000A084880EDAA0A00F528700FF009
:1013600057FC054890EDB40A80EDD30A00BF00BFDA
:10137000BDEC048B10BD000060220020000D002099
:1013800034010020FC0C002030010020040D00205E
:101390000000000010B50948D0ED061AB0EE611A41
:1013A000D0ED051AF0EE610AD0ED041AB0EE610A34
:1013B0000120FFF767FF05F02DF910BD90570020C1
:1013C00010B50446112C71D2DFE804F00912223264
:1013D0003C4C4D4E4F5051525354555671000CF0E9
:1013E00057FB494890ED260A484880ED060A89E0F7
:1013F00000F03AFE444890ED260A444880ED060A83
:10140000DFED430A9FED420A002003F0F5FA79E090
:1014100017F0C6FB3C4890ED260A3C4880ED060AD2
:10142000DFED3B0A9FED3A0A002003F0E5FA69E0A0
:1014300015F0CAFCDFED360A9FED350A002003F0F7
:10144000DBFA5FE003F070FD2F4890ED260A2F488D
:1014500080ED060ADFED2E0A9FED2D0A002003F035
:10146000CBFA4FE000BF00BF00BF00BF00BF00BF0E
:1014700000BF00BF00BF00BF234890ED240A2348EF
:1014800080ED040A204890ED250A204880ED050AE9
:101490001D4890ED260A1D4880ED060ADFED1C0A66
:1014A0009FED1B0A002003F0A7FA2BE010E00020BC
:1014B0000EF012F9144890ED260A144880ED060A41
:1014C000DFED140A9FED120A022003F095FA19E0ED
:1014D0000D4890ED240A0D4880ED040A0A4890ED6D
:1014E000250A0A4880ED050A074890ED260A0748B4
:1014F00080ED060ADFED060A9FED050A002003F0E5
:101500007BFA00BF00BF10BD44310020905700207F
:1015100000000000000048C210B5054816F05EFC4F
:101520000E21044803F0E8FE13F020F910BD00007E
:10153000050800F00050024010B50446208801283C
:1015400003DB2088401E208004E0217C0022E0682C
:1015500003F01DFF208810B9A07C01282AD1208922
:10156000401C2081208900EB80006188884201DBDB
:1015700000202081608800EE100AB8EE400AD4ED09
:10158000010A60EE200A208900EB800000EE100ABC
:10159000B8EEC00AF4EEC00AF1EE10FA05DB227CC8
:1015A000D1B2E06803F0F3FE04E0217C0022E068A1
:1015B00003F0EDFE10BDF0B505AC70CC00EE901A56
:1015C000F8EE600AB1EE041AC0EE811AFCEEE10AF0
:1015D00010EE907A0780428080ED010A0381C4609A
:1015E00005828674F0BD000010B504464CB9584819
:1015F000FFF7A2FF5748FFF79FFF5748FFF79CFFF1
:10160000A4E0012C5CD15548007848B95148FFF757
:1016100093FF4F4803F0C0FE4F4803F0BDFE95E036
:101620004E480078012809D14A48FFF785FF48480D
:1016300003F0B2FE484803F0AFFE87E04748007869
:10164000022809D14348FFF777FF414803F0A4FE81
:10165000414803F0A1FE79E040480078032809D111
:101660003C48FFF769FF3A4803F096FE3A4803F01A
:1016700093FE6BE039480078042809D13548FFF71C
:101680005BFF334803F088FE334803F085FE5DE0DE
:1016900032480078052809D12E48FFF74DFF2C4825
:1016A00003F07AFE2C4803F077FE4FE02848FFF75E
:1016B00043FF2848FFF740FF2748FFF73DFF45E07D
:1016C000022C32D12648007848B92248FFF734FF6F
:1016D0001F4803F061FE204803F05EFE36E020481C
:1016E0000078012809D11B48FFF726FF184803F0AE
:1016F00053FE194803F050FE28E0194800780228EC
:1017000009D11448FFF718FF114803F045FE1248AD
:1017100003F042FE1AE00E48FFF70EFF0D48FFF7F8
:101720000BFF0D48FFF708FF10E0032C0ED100223D
:1017300002210C4803F02BFE00220421094803F08B
:1017400026FE00220821074803F021FE10BD0000FC
:10175000281400203C14002050140020E100002038
:10176000000100200050024010B52A48DFED2A0A8F
:101770009FED2A0A15F0D4FF2948DFED2A0A9FEDD4
:10178000270A15F0CDFF2848DFED280A9FED230A30
:1017900015F0C6FF2648F3EE0E0A9FED200A15F05D
:1017A000BFFF2448F3EE040A9FED1C0A15F0B8FFB2
:1017B0002148F2EE0E0A9FED190A15F0B1FF1F48FD
:1017C000F2EE040A9FED150A15F0AAFF1C48F1EE8F
:1017D000040A9FED120A15F0A3FF1A48F0EE000A62
:1017E0009FED0E0A15F09CFF1748F2EE040A9FEDDC
:1017F000170A15F095FF1648F0EE000AB3EE040A3A
:1018000015F08EFF1348F7EE080AB3EE040A15F040
:1018100087FF10BD781400200000A042000048435C
:101820009014002000007042A814002000004C42D8
:10183000C0140020D8140020F01400200815002047
:1018400020150020381500205015002000004842C7
:10185000681500208015002070B503460C4615461B
:1018600000204DE0461C31B246E000EB400604EBA0
:10187000C60606EB8106D6ED000A00EB400604EB37
:10188000C60606EB800696ED001A80EE810AB5EEDC
:10189000C00AF1EE10FA2DD003EB8106D6ED000A56
:1018A00003EB800696ED001A40EE410A03EB810639
:1018B000C6ED000A0A461BE002EB420604EBC60630
:1018C00006EB8106D6ED000A02EB420604EBC606E3
:1018D00006EB800696ED001A40EE410A02EB420646
:1018E00004EBC60606EB8106C6ED000A561C32B2B2
:1018F000062AE1DB4E1C31B20629B6DB461C30B2AB
:101900000628AFDB052045E000EB400604EBC606E9
:1019100006EB8006D6ED000A03EB800696ED001A72
:10192000C1EE201A03EB8006C6ED001AF7EE000A9E
:1019300000EB400604EBC60606EB8006C6ED000A87
:10194000002123E000EB400604EBC60606EB81060F
:10195000D6ED000AB0EE600A03EB8106D6ED000A70
:1019600003EB800696ED001A40EE410A03EB810678
:10197000C6ED000ADFED100A00EB400604EBC606D8
:1019800006EB8106C6ED000A4E1C31B28142D9DB5E
:10199000461E30B20028B7DA002009E003EB8006CB
:1019A000D6ED000A05EB8006C6ED000A461C30B2F3
:1019B0000628F3DB70BD00000000000010B50246F1
:1019C0000B46002017E09FED0D0A02EB800484ED2A
:1019D000000A00210BE09FED090A00EB400403EB35
:1019E000C40404EB810484ED000A4C1C21B20629D6
:1019F000F1DB441C20B20628E5DB10BD000000002E
:101A0000F0B586B004460D46F7EE001AB0EE611A46
:101A1000002035E0C61C02EB8606D6ED000A03EB7B
:101A20008006D6ED001A02EB800696ED002A31EE14
:101A3000C20A60EEA01A21EE802AF0EE411A42EEB0
:101A4000401AB0EE611AF0EE001A60EEA11A61EED3
:101A5000A01A61EE801A6E4606EB8006C6ED001AEB
:101A6000F8EE001A60EEA11A61EE801A61EE801A9B
:101A7000C61C6F4607EB8606C6ED001A461C30B240
:101A80000328C7DB002032E004EB8006D6ED001A05
:101A90006E4606EB800696ED002A42EE011A04EB34
:101AA0008006C6ED001A00211DE000EB400605EBA4
:101AB000C60606EB8106D6ED001A6E4606EB8006DA
:101AC00096ED002A6E4606EB8106D6ED002A42EE20
:101AD000221A00EB400605EBC60606EB8106C6EDB2
:101AE000001A4E1C31B20629DFDB461C30B2062834
:101AF000CADB06B0F0BD00002DE9F0432DED028BEE
:101B0000B9B007460E4614464FF000089FED9F0AF5
:101B1000B0EE408A9FED9E0AF0EE408A002036909B
:101B200037903890182130A8FEF7E9FC18212AA830
:101B3000FEF7E5FC182124A8FEF7E1FC9021684699
:101B4000FEF7DDFC4FF001099FED920A8DED320AA0
:101B50008DED310A8DED300A9FED8F0A8DED350A3E
:101B60008DED340A8DED330A7FE008F101000FFAA4
:101B700080F8694624A8FFF721FF00251FE005EB48
:101B8000450007EB800090ED000A8DED360A05EB6D
:101B9000450007EB800090ED010A8DED370A05EB5B
:101BA000450007EB800090ED020A8DED380A36AB58
:101BB00030AA694624A8FFF723FF681C05B2062D4A
:101BC000DDDB2AAA694624A8FFF746FE9DED2D0A13
:101BD00020EE000ADDED330A20EEA01AC0EE010A65
:101BE0009DED2A0A20EE000A30EE000A9DED2B1A28
:101BF000DDED2B1A01EE210A9DED2C1ADDED2C1ADC
:101C000001EE210A30EE800ADDED2E0A60EEA00A18
:101C10009DED341A21EE011AC0EE811A70EE210AF0
:101C20009DED2F0A20EE000A9DED351A21EE011AD6
:101C3000C0EE011A30EEA10AF0EE408A002512E053
:101C400030A800EB850090ED000A2AA800EB850083
:101C5000D0ED000A30EE600A30A800EB850080ED80
:101C6000000A681C05B2062DEADBB8F1140F05DA8C
:101C7000F4EEC88AF1EE10FA3FF777AF9DED330A24
:101C8000DFED460A20EE200A84ED000A9DED340ABD
:101C9000DFED420A20EE200A84ED010A9DED350AAF
:101CA000DFED3E0A20EE200A84ED020A9DED300AA7
:101CB000D4ED000A20EE200A86ED000A9DED310ADF
:101CC000D4ED010A20EE200A86ED010A9DED320ACC
:101CD000D4ED020A20EE200A86ED020A94ED000AF5
:101CE000F7EE000A30EE600AB0EEC00ADFED2C0A13
:101CF000B4EEE00AF1EE10FA1DDC94ED010AF7EE05
:101D0000000A30EE600AB0EEC00ADFED250AB4EE3C
:101D1000E00AF1EE10FA0EDC94ED020AF7EE000A8A
:101D200030EE600AB0EEC00ADFED1D0AB4EEE00A44
:101D3000F1EE10FA01DD4FF0000996ED000AB0EE69
:101D4000C00AF1EE040AB4EEE00AF1EE10FA15DC76
:101D500096ED010AB0EEC00AF1EE040AB4EEE00A14
:101D6000F1EE10FA0ADC96ED020AB0EEC00AF1EECE
:101D7000040AB4EEE00AF1EE10FA01DD4FF00009BA
:101D8000484639B0BDEC028BBDE8F0835F70893006
:101D90000000C842000000007FD6D03D0AE81C4188
:101DA000CDCC4C3E10B50A480078401C084908705C
:101DB00008460078042804DB01F09EF9002004495D
:101DC000087016F06DFF00F081FE16F059FB10BD93
:101DD0008C0B00202DE9FF470546002403A9284667
:101DE00018F075FD044695F87C9340F27F30465D0F
:101DF00034B902AB01AA6946284618F0EDFB044647
:101E00001CB928461AF0E8F904462CB94FF4FA71C7
:101E1000284617F0DCFE044644B9D5F81480434642
:101E200032464946284615F097FB044644B92846F1
:101E30009DE80E001AF083F904460CB90298286157
:101E400024B903A928461AF0A2F9044634B9AF7898
:101E500006223946284619F06BFA044614B940F2B6
:101E60007E304655204604B0BDE8F0870020094981
:101E70000978012901D140F00100074909780129B9
:101E800001D140F0020005490978012901D140F053
:101E90000400704758020020E2000020F8000020F3
:101EA00010B50146002001EBC1026E4B13F8222051
:101EB00001EBC1036B4C04EB83035B781A4001EB2D
:101EC000C10304EB83039B781A4001EBC10304EBCD
:101ED0008303DB781A4001EBC10304EB83031B7916
:101EE0001A4001EBC10304EB83035B791A4001EB59
:101EF000C10304EB83039B791A4001EBC10304EB9C
:101F00008303DB791A4001EBC10304EB83031B7AE3
:101F10001A4001EBC10304EB83035B7A1A4001EB27
:101F2000C10304EB83039B7A1A4001EBC10304EB6A
:101F30008303DB7A1A4001EBC10304EB83031B7BB1
:101F40001A4001EBC10304EB83035B7B1A4001EBF6
:101F5000C10304EB83039B7B1A4001EBC10304EB39
:101F60008303DB7B1A4001EBC10304EB83031B7C7F
:101F70001A4001EBC10304EB83035B7C1A4001EBC5
:101F8000C10304EB83039B7C1A4001EBC10304EB08
:101F90008303DB7C1A4001EBC10304EB83031B7D4D
:101FA0001A4001EBC10304EB83035B7D1A4001EB94
:101FB000C10304EB83039B7D1A4001EBC10304EBD7
:101FC0008303DB7D1A4001EBC10304EB83031B7E1B
:101FD0001A4001EBC10304EB83035B7E1A4001EB63
:101FE000C10304EB83039B7E1A4001EBC10304EBA6
:101FF0008303DB7E1A4001EBC10304EB83031B7FE9
:102000001A4001EBC10304EB83035B7F1A4001EB31
:10201000C10304EB83039B7F1A4001EBC10304EB74
:102020008303DB7F1A4001EBC10304EB830393F8C6
:1020300020301A4001EBC10304EB830393F82130F5
:102040001A4001EBC10304EB830393F822301A40DA
:1020500001EBC10304EB830393F823301A4002B170
:10206000012010BD6813002010B538480088401CBE
:102070003649088008460088142848DB002008807C
:10208000334890F83D0001283ED1324908700020C5
:10209000314908702E4981F83D009FED300A3048E3
:1020A00080ED010A084690ED100A2D4880ED020AE5
:1020B000084690F83A102A480EF07EFC9FED270A59
:1020C0002748A83080ED010A214890ED110A2448E4
:1020D000A83080ED020A1E4890F83A102048A83037
:1020E0000EF06AFC1E4890ED0C0AB1EE400A1D4845
:1020F00080ED000A1A48A83090ED0C0AB1EE400AB3
:10210000184880ED010A02E00120134908701248C6
:102110000078012812D10F480078012806D102204A
:102120000C49087001200DF0CBFB0EE00948007847
:1021300002280AD100200DF0C3FB06E00948D0EDCB
:10214000010A90ED000A0DF0A3FE10BDCE0C002098
:102150004C600020CD0C0020D00C002000000000BE
:10216000882D00209C0C002023480088401C224918
:1021700008800846008828283DDB002008801F488A
:1021800090ED090AD0ED060AB4EE600AF1EE10FAFD
:102190001ED190ED0A0AD0ED070AB4EE600AF1EE06
:1021A00010FA15D190ED0B0AD0ED080AB4EE600AD2
:1021B000F1EE10FA0CD112480088401C104908803A
:1021C000084600880A2810DD00200E4988700CE0BF
:1021D0000B49088800EBD0714910094A118010465C
:1021E000008810B901200749887004480346183355
:1021F0000ECB24300EC07047DC0D00203843002089
:10220000D80D0020340D002010B504F049FC0A2040
:1022100001F0A0F80FF07AFC0348F3EE020A9FEDFC
:10222000030A15F07DFA10BD3C2100200000204279
:102230001CB5044642480088401C414908800846B5
:10224000008801287AD00846008800EE100AB8EE0F
:10225000400AF2EE040AB4EEE00AF1EE10FA6DDB89
:10226000384816F0FBF900210D2015F0A1FB8DF880
:10227000000001210D2015F09BFB8DF801000221CB
:102280000D2015F095FB8DF8020003210D2015F0AF
:102290008FFB8DF8030004210D2015F089FB8DF8CC
:1022A000040005210D2015F083FB8DF805009DF835
:1022B00000009DF8011040EA012000B200EE100A73
:1022C000B8EEC00ADFED200A80EE201A84ED001A75
:1022D0009DF802009DF8031040EA012000B200EED4
:1022E000100AB8EEC00ADFED180A80EE201A84ED5D
:1022F000011A9DF804009DF8051040EA012000B283
:1023000000EE100AB8EEC00ADFED0F0A80EE201AC8
:1023100084ED021A0D4816F0A1F90C4890ED010A5F
:102320000848D0ED010A30EE600A094880ED000A45
:1023300000200349088001201CBDFFE70020FBE7C7
:10234000DA0D0020CC65002000803B45DC650020D4
:10235000D40D00203EB503460C46002017A52D687D
:10236000029517A52D68019516A52D6800950125E4
:102370001570012C02D0022C04D101E0002103E0F1
:10238000012101E0022100BF00BF032B08D0042B74
:1023900002D0082B0CD107E002AD6D5C15700AE08D
:1023A00001AD6D5C157006E01DF80150157002E07E
:1023B0006FF0070000BF00BF3EBD00000201030038
:1023C00007060800242526002DE9F04F06460F4693
:1023D00013464FF496784FF01E09DFF884C0DFF8FB
:1023E00084A041F69A1B0EB9002037E0072F01D1D7
:1023F000322033E0B3F93CE0C64502DA4FEA094146
:1024000003E0B3F93CE00EFB0BF181B1B3F838E027
:102410000EFB0AF202EB5102B2FBF1F2120462452A
:1024200002D8ACEB020404E04FF4481401E04FF48E
:10243000C804C4F30745642D02DD4FF0640E00E0CC
:10244000AE46BEF1320F06DD642D02DD4FF0640EA4
:1024500003E0AE4601E04FF0320E7046BDE8F08F6B
:1024600033B37500CDCC3000F8B564201CF088FB88
:102470004FF4A176AA2014F091FDAB2014F08EFD4C
:102480003949087814F08AFD3749487814F086FDF8
:102490003549887814F082FD3349C87814F07EFD00
:1024A00031490978304A527851402F4A9278514048
:1024B0002D4AD27881EA020014F070FD00254FF613
:1024C000FF702A49088017E009E028480088401E6C
:1024D000264908800846008808B90020F8BD24482D
:1024E00016F067FD0028F0D0214816F051FDC2B269
:1024F00028466D1C0DF80020032DE5DB00242CE0A0
:10250000BB2014F04BFDDC2014F048FD1949085D98
:1025100014F044FD174A611C505C14F03FFD15494E
:10252000095D81F0DC01134B621C9A5C81EA0200B8
:1025300014F034FD00250DE000BF0D4816F039FD04
:102540000028FAD00A4816F023FDC2B228466D1CB6
:102550000DF80020032DEFDBA41CB442D0D3DD2006
:1025600014F01CFD0120B9E7903D0200A6020020F6
:1025700000E00040943D020010B5164815F02EFC16
:10258000154815F02BFC012002F06AFE40F20140D4
:1025900002F066FE03214FF0402002F0E9FE052123
:1025A0000E4816F00CFD0E4A4FF46121002016F083
:1025B00069FD0A4816F046FD1021084816F049FD4D
:1025C0000849064816F049FD6021152004F07AFC00
:1025D00010BD0000000800F0001800F000C000402E
:1025E0000024F400D58D010010B5154815F0F6FB58
:1025F000144815F0F3FB4FF0011002F031FE1248C1
:1026000002F02EFE0321114802F0B2FE052110480F
:1026100016F0D5FC0F4A4FF46121012016F032FD6F
:102620000B4816F00FFD1021094816F012FD0A495B
:10263000074816F012FD4021162004F043FC10BD9F
:10264000010800F0011800F00104010000500040F2
:1026500000D000400024F400258E010010B515487C
:1026600015F0BCFB144815F0B9FB144802F0F8FD56
:10267000134802F0F5FDC021124802F079FE15F072
:1026800081FA044660234FF4612221460E4816F079
:1026900099FC0D4816F0D6FC10210B4816F0D9FC19
:1026A0000A49094816F0D9FC40214B2004F00AFCE5
:1026B00010BD0000020800F0031800F0011802002D
:1026C000011C02000060004000F000409D8E0100EF
:1026D00010B51E4815F082FB1D4815F07FFB1D4804
:1026E0001D490860081D006840F08000091D086051
:1026F0000020091F0860194802F0B2FD184802F0D6
:10270000AFFDC021174802F033FE15F03BFA044636
:1027100060234FF496422146134816F053FC1248AA
:1027200016F090FC1021104816F093FC0DF024FADE
:10273000FFF79AFE0D4908700D490B4816F08DFC05
:10274000A021312004F0BEFB10BD0000030800F002
:10275000021800F04B434F4C207500400118030055
:10276000011C03000070004000E00040AA0B0020A4
:10277000598E010010B577495A2012F0B8FD7549FD
:10278000086820F00041C1F1FF41C90F002970D154
:10279000704890ED000ABCEEC00A10EE100A6E49B7
:1027A00008700846007801282FD16C4815F016FBF8
:1027B0006B4815F013FB6B4802F052FD6A4802F0BB
:1027C0004FFD0321694802F0D3FD15F0DBF9044603
:1027D00060234FF416522146654816F0F3FB654816
:1027E00013F05DFC624816F02DFC1021604816F0D5
:1027F00030FC61495E4816F030FC20214F2004F087
:1028000061FB01205D490880A2E05348007802285E
:1028100030D1524815F0E2FA514815F0DFFA51482C
:1028200002F01EFD504802F01BFD03214F4802F04C
:102830009FFD15F0A7F9044660234FF4E1322146CD
:102840004B4816F0BFFB4B4813F029FC484816F0E4
:10285000F9FB1021464816F0FCFB4749444816F0A6
:10286000FCFB20214F2004F02DFB01204349088070
:102870006EE03EE03848007803282FD1374815F045
:10288000ADFA374815F0AAFA364802F0E9FC3648A6
:1028900002F0E6FC0321354802F06AFD15F072F9FA
:1028A000044660234FF461222146314816F08AFB2A
:1028B000304813F0F4FB2E4816F0C4FB10212C48CE
:1028C00016F0C7FB2C492A4816F0C7FB20214F20E1
:1028D00004F0F8FA01202949088039E01E48007800
:1028E000042835D12548008890BB254816F076FD90
:1028F0002EE01A4815F072FA194815F06FFA1948C7
:1029000002F0AEFC184802F0ABFC0321174802F0BD
:102910002FFD15F037F9044660234FF41652214677
:10292000134816F04FFB134813F0B9FB104816F08C
:1029300089FB10210E4816F08CFB0F490C4816F04D
:102940008CFB20214F2004F0BDFA01200B490880A8
:1029500010BD00009C0900209A090020040800F026
:10296000071800F0010004000104040000400240C8
:102970000030014096490020ED8E0100FA0400204D
:102980000853002070B52DED028BB0EE408A04464E
:102990000D4694ED030AB5EEC00AF1EE10FA33D1FC
:1029A00094ED040AB5EEC00AF1EE10FA2CD194EDC4
:1029B000050AB5EEC00AF1EE10FA25D194ED000A31
:1029C000B5EEC00AF1EE10FA1ED194ED010AB5EE93
:1029D000C00AF1EE10FA17D194ED020AB5EEC00A62
:1029E000F1EE10FA10D184ED038A84ED048A84EDAF
:1029F000058A84ED008A84ED018A84ED028AB0EEB6
:102A0000480ABDEC028B70BD84ED028A95ED030A85
:102A1000D4ED020A20EE200AD5ED040A94ED011A45
:102A200000EE810AD5ED050A94ED001A00EE810A48
:102A3000D5ED010A94ED041A00EEC10AD5ED020AA3
:102A400094ED031A00EEC10A84ED050A94ED010A23
:102A500084ED000A94ED020A84ED010A94ED040A63
:102A600084ED030A94ED050A84ED040A002628E0AB
:102A700004F10C0000EB860090ED000A10EE101A35
:102A800008461AF0B7F801280AD004EB860090ED4A
:102A9000000A10EE101A08461AF0ACF801280ED100
:102AA00084ED038A84ED048A84ED058A84ED008A2E
:102AB00084ED018A84ED028AB0EE480AA1E7701C19
:102AC00086B2032ED4DB94ED050A9AE7F0B52DED1E
:102AD000048B85B015F076FE1DF008F8FE480088DE
:102AE00001287DD1FD48007801287AD1FC48B0F951
:102AF0000000B0F57A7F15DCFA48B0F90000B0F5B7
:102B00007A7F0FDCF848B0F90000B0F57A7F09DC75
:102B1000F648B0F90000B0F57A7F03DC6420F44990
:102B2000088013E0F348007880B90020EA49088063
:102B30000821F14A0346B6EE000ACDE900210290D1
:102B4000C82240F6B831ED48FEF735FDEC48008864
:102B5000401CEB4908800846008804280BDBE44849
:102B60000088012804DBE2480088401EE049088014
:102B70000020E3490880DE480088C0F16400642139
:102B8000484390FBF1F000F57A7000B2DD4908800F
:102B9000D7480088C0F164006421484390FBF1F0FD
:102BA00000F57A7000B2D8490880D1480088C0F199
:102BB00064006421484390FBF1F000F57A7000B2A4
:102BC000D2490880CA480088C0F1640064214843A3
:102BD00090FBF1F000F57A7000B2CD49088001E079
:102BE000D2E106E015F024FC0DF030F90CF066FFA0
:102BF000DAE1C848007801287DD1C748008840F252
:102C00001A41884278DBC548008800EE100AB8EE09
:102C1000400AF7EE000A20EE200AC148D0ED8A0AE9
:102C2000BFEE001A01EE200AD0ED360AB7EE001A08
:102C300001EE200AD0EDDE0ABFEE001A01EE200AF6
:102C4000BDEEC00A10EE100A00B2AE490880B348CB
:102C5000008800EE100AB8EE400AF7EE000A20EEF7
:102C6000200AAF48D0ED8A0AB7EE001A01EE200A1A
:102C7000D0ED360ABFEE001A01EE200AD0EDDE0AD2
:102C8000BFEE001A01EE200ABDEEC00A10EE100AD7
:102C900000B29D490880A148008800EE100AB8EEF5
:102CA000400AF7EE000A20EE200A9D48D0ED8A0A7D
:102CB000B7EE001A01EE200AD0ED360AB7EE001A80
:102CC00001EE200AD0EDDE0AB7EE001A01EE200A6E
:102CD000BDEEC00A10EE100A00B28C4908808F4881
:102CE000008800EE100AB8EE400AF7EE000A20EE67
:102CF000200A8B4801E05FE019E0D0ED8A0ABFEEC0
:102D0000001A01EE200AD0ED360ABFEE001A01EEDD
:102D1000200AD0EDDE0AB7EE001A01EE200ABDEE61
:102D2000C00A10EE100A00B27949088015E07B480D
:102D3000008800B2734908807848008800B2724960
:102D400008807648008800B270490880734800887F
:102D500000B26F49088015F06BFB6A48B0F900209B
:102D600040F6C41140F24C4019F076FC65490880E9
:102D70006548B0F9002040F6C41140F24C4019F00B
:102D80006BFC614908806148B0F9002040F6C4112D
:102D900040F24C4019F060FC5C4908805C48B0F996
:102DA000002040F6C41140F24C4019F055FC58493F
:102DB000088015F031FEF7E0564800780228FAD175
:102DC0005648008800EE100AB8EE400AF7EE000AF6
:102DD00020EE200A5248D0ED8A0ABFEE001A01EE1A
:102DE000200AD0ED360AB7EE001A01EE200AD0ED27
:102DF000DE0ABFEE001A01EE200ABDEEC00A10EE98
:102E0000100A00B23F4908804448008800EE100ACA
:102E1000B8EE400AF7EE000A20EE200A4048D0ED56
:102E20008A0AB7EE001A01EE200AD0ED360ABFEE8C
:102E3000001A01EE200AD0EDDE0ABFEE001A01EE04
:102E4000200ABDEEC00A10EE100A00B22E4908801A
:102E50003248008800EE100AB8EE400AF7EE000A89
:102E600020EE200A2E48D0ED8A0AB7EE001A01EEB5
:102E7000200AD0ED360AB7EE001A01EE200AD0ED96
:102E8000DE0AB7EE001A01EE200ABDEEC00A10EE0F
:102E9000100A00B21D4908802048008800EE100A80
:102EA000B8EE400AF7EE000A20EE200A1C48D0EDEA
:102EB0008A0ABFEE001A01EE200AD0ED360ABFEEF4
:102EC000001A01EE200AD0EDDE0AB7EE001A01EE7C
:102ED000200ABDEEC00A25E018030020DF0A00200A
:102EE000660B0020680B00206A0B00206C0B002092
:102EF000880B0020DE0A0020005002405014002001
:102F0000860B00205E0B0020600B0020620B00206F
:102F1000640B00206E0B00207A0B0020840B002035
:102F20006022002010EE100A00B26949088069484A
:102F3000B0F9002040F6C41140F24C4019F08CFB6F
:102F4000644908806448B0F9002040F6C41140F29A
:102F50004C4019F081FB604908806048B0F90020BE
:102F600040F6C41140F24C4019F076FB5B490880F2
:102F70005748B0F9002040F6C41140F24C4019F017
:102F80006BFB534908800FE04FF47A705149088079
:102F900051490880514908804D49088015F048FA88
:102FA0000CF054FF0CF08AFD4A48B0F900004C497F
:102FB00008804948B0F900004A4908804748B0F9FC
:102FC0000000494908804248B0F90000474908809C
:102FD0004048B0F9002040F6C411002019F03CFB35
:102FE0003C4908803C48B0F9002040F6C41100205C
:102FF00019F032FB384908803848B0F9002040F613
:10300000C411002019F028FB344908803048B0F979
:10301000002040F6C411002019F01EFB2C49088046
:103020000846B0F900001EF00CFE41EC190B9FEDB4
:10303000300B53EC102B1EF06BFE41EC180B1EF006
:10304000D3FD84B22548B0F900001EF0FAFD41EC32
:10305000190B9FED270B53EC102B1EF059FE41EC82
:10306000180B1EF0C1FD85B21B48B0F900001EF020
:10307000E8FD41EC190B9FED1E0B53EC102B1EF0DD
:1030800047FE41EC180B1EF0AFFD86B21148B0F9B7
:1030900000001EF0D6FD41EC190B9FED150B53EC13
:1030A000102B1EF035FE41EC180B1EF09DFD87B273
:1030B000002000900190029023462A46314603905A
:1030C00038460EF0D9F905B0BDEC048BF0BD000018
:1030D000640B00205E0B0020600B0020620B0020C0
:1030E000660B0020680B00206A0B00206C0B002090
:1030F000000000000000F43F10B56E4800786E49F3
:1031000008706E4800786E4908706E4800786E4905
:1031100008706E48B0F85010B0F85600081A6C49A4
:103120000989884203DC0220624908700CE0674884
:10313000B0F85210B0F85600084465490989884231
:1031400002DB01205B4908706048B0F86010B0F8FD
:103150006600081A5E494989884203DC01205D49FE
:10316000087004E000205B4908700AF075FC5748BD
:10317000B0F87010B0F87600081A5549898988426D
:1031800003DC02204F4908700CE05048B0F874107E
:10319000B0F8760008444E498989884202DB012054
:1031A000484908704948B0F88010B0F88600081AFD
:1031B0004749C989884203DC02204049087010E071
:1031C0004248B0F88210B0F8860008444049C989E6
:1031D000884206DB0120394908700CF037FE0CF0FC
:1031E0006DFC3D48008801280DD115F05BFA3B4984
:1031F000087008460078022803D10020364908806C
:1032000001E015F015F92F4800782F490978884218
:103210000BD0334890ED000A324880EDFD0A294872
:103220000078012801D11CF02DFC224800782249A9
:10323000097888420CD01F480078022802D101206A
:10324000294908701B480078012801D126490870D7
:103250001A4800781A49097888420CD01748007833
:10326000022801D12049087014480078012802D1B1
:1032700002201D4908701C480078012811D10D4812
:103280000078022809D11948008819490880144893
:1032900090ED000A134880EDFD0A002012490870E5
:1032A00006E011480078022802D100200E4908707B
:1032B00010BD00006E0B00206F0B0020700B002073
:1032C000710B0020740B0020750B0020443100208E
:1032D00036300020720B0020240300209C0A0020BE
:1032E0004832002060220020760B0020FA020020E5
:1032F000780B002001460A1F102A1BD2DFE802F0DB
:103300000E0C101216181A1A141A1A1A1A1A080A77
:103310000A2011E006200FE004200DE002200BE05F
:10332000012009E0072007E0092005E0032003E071
:10333000002001E0FF2000BF00BF704707E002212E
:1033400001E04A1E91B20029FBD1421E90B2002832
:10335000F5D1704710B5044620461BF0FCFB10BDAC
:103360002DE9F04105460C46214628461BF00EFF8C
:103370000646601CC1B228461BF008FF074647EA14
:10338000062000B2BDE8F08170B50026002414E0EC
:103390002146002005F0E0FA00250AE03146761CBF
:1033A0000A4A505C05F020FB0220FFF7D3FF681C9F
:1033B000C5B2802DF2DB601CC4B2082CE8DB4FF4F0
:1033C000FA70FFF7C7FF05F011FA70BDC0320200B6
:1033D00010B50220FCF7DCFF19F04AFB0B48C4696A
:1033E00004F00C0080B10A4814F02EFD0220FCF716
:1033F000CFFF19F03DFB0548C46904F00C0008B18B
:10340000022010BD0120FCE70020FAE700F00A408E
:10341000005800F010B50F4800680F4908400F49E8
:10342000884205D10B48006880B208B919F0E4FA67
:103430000B480C49086019F01BFB0B4814F004FD05
:103440000220FCF7A5FF19F013FB064880388069BD
:1034500010BD000000E00F400000FF7000000510EC
:1034600001007BE380F00A40005800F02DE9F041B4
:1034700007460E46144600BF2A48856905F001003C
:103480000028F9D1B00927494860C6F38300886055
:10349000A40835E0244800682449084024498842AB
:1034A00006D12148006880B210B9304619F0C0FA40
:1034B0001C493868486100BF1A48856905F0010059
:1034C0000028F9D105F4887078B1174800681749C9
:1034D00008401749884205D11348006880B208B9EE
:1034E00019F08AFA2846BDE8F0813F1D641E3CB100
:1034F0000C48806820B90B484068401C0949486066
:10350000002CC7D10848006808490840084988428B
:1035100005D10548006880B208B919F06DFA014874
:103520008069E0E700F00A4000E00F400000FF7013
:103530000000051010B58B090B4C6360C1F38303C9
:10354000A36092080DE0084B5B690360001D521EEA
:103550003AB1054B9B6823B9034B5B685B1C024C7B
:103560006360002AEFD110BD00F00A4010B5034897
:1035700014F034FCFFF72CFF10BD0000005800F0E1
:103580002DE9F04F2DED048B85B04D4988881EF054
:103590006FFB41EC190B9FED4B0B53EC102B1EF006
:1035A000B7FB41EC180B1EF01FFB84B2444988881E
:1035B0001EF05EFB41EC190B9FED420B53EC102B00
:1035C0001EF0A6FB41EC180B1EF00EFB85B23C4929
:1035D00088881EF04DFB41EC190B9FED3A0B53EC24
:1035E000102B1EF095FB41EC180B1EF0FDFA86B275
:1035F000334988881EF03CFB41EC190B9FED310BE1
:1036000053EC102B1EF084FB41EC180B1EF0ECFA6F
:1036100087B22B4988881EF02BFB41EC190B9FEDDC
:10362000290B53EC102B1EF073FB41EC180B1EF012
:10363000DBFA1FFA80F8224988881EF019FB41EC5A
:10364000190B9FED200B53EC102B1EF061FB41EC8E
:10365000180B1EF0C9FA1FFA80F9194988881EF064
:1036600007FB41EC190B9FED170B53EC102B1EF0D1
:103670004FFB41EC180B1EF0B7FA1FFA80FA104905
:1036800088881EF0F5FA41EC190B9FED0E0B53ECF8
:10369000102B1EF03DFB41EC180B1EF0A5FA1FFA93
:1036A00080FB43464A4651465846CDE90076CDE96F
:1036B00002540DF0E1FE05B0BDEC048BBDE8F08FC7
:1036C0004A300020000000000000F43F0EB54448DE
:1036D000008800EE100AB8EE400ADFED420AB4EEB0
:1036E000E00AF1EE10FA22D83F4890ED000ADFED33
:1036F0003F0AB4EEE00AF1EE10FA18DB3C4890ED18
:10370000000ADFED3C0AB4EEE00AF1EE10FA0EDB3F
:10371000394890ED000ADFED390AB4EEE00AF1EE27
:1037200010FA04D836480088401C354908802C48D7
:10373000008800EE100AB8EE400ADFED2A0AB4EE67
:10374000E00AF1EE10FA49D8274890ED000ADFEDC3
:10375000270AB4EEE00AF1EE10FA3FDB244890EDC0
:10376000000ADFED240AB4EEE00AF1EE10FA35DBD0
:10377000214890ED000ADFED210AB4EEE00AF1EEF7
:1037800010FA2BD81E480088B0F57A7F26DD1D4838
:10379000008818BBB7EE000A1B4880ED000A002025
:1037A00017490880194908801949174890ED000AFF
:1037B000542019F02FF800200221164A03469FEDED
:1037C000160ACDE9002102904FF4FA7241F28831D5
:1037D0001248FDF7F0FE0F20114908800EBD0000D1
:1037E000FA02002000408344040300200000164336
:1037F000000300200000D241FC0200200000D2C1E2
:103800002A010020180300202C010020260300209C
:10381000B44A002000500240CDCC4C3E2814002079
:10382000560200200AF0E6F90DF0BAFD03F02EFA78
:1038300064201BF0A5F925499FED250A542018F0B6
:10384000E9FF42E0FFF79CFE0021084605F0FAF888
:103850000121002005F0F6F81EA20021084605F01F
:1038600037F80221002005F0EDF80321002005F0D3
:10387000E9F81CA20221002005F02AF8042100200A
:1038800005F0E0F80521002005F0DCF819A204217C
:10389000002005F01DF81AA20421502004F0E6FFD4
:1038A0001948808800EE900AF8EE600AB0EE600ACF
:1038B000052150201DF0B4FD0621002005F0C2F8BE
:1038C00012A20621002004F0D1FFBBE7B44A002079
:1038D00000000000506C65617365204D6F766520B7
:1038E00054687200446F776E205768656E204553A8
:1038F000430000004265657020426565700000006D
:103900005468723A000000004A3000205265706F1F
:10391000776572205768656E205365742055700076
:1039200010B52DED0C8B84B0002001900290039017
:10393000EA4AA2F13401A1F10C0005F05BFDE84870
:1039400090ED000ADFEDE70A60EE200A9FEDE61A2F
:1039500080EE810AE548D0ED000AE048403890ED5D
:10396000031A10EE810AE24880ED000ADC4890ED6F
:10397000010ADFEDDC0A60EE200A9FEDDB1A80EE23
:10398000810ADA48D0ED010AD448403890ED041A93
:1039900010EE810AD64880ED010AD14890ED020A66
:1039A000DFEDD00A60EE200A9FEDCF1A80EE810A8B
:1039B000CE48D0ED020AC948403890ED051A10EE05
:1039C000810ACB4880ED020A90ED000AF0EE408AB1
:1039D00090ED010AB0EE409A90ED020AB0EE408AF6
:1039E00069EE090A48EE080AB0EE600A1BF028FEEC
:1039F00020EE280A10EE104A20461EF07FFC41EC13
:103A00001C0BB0EE4C0AF0EE6C0A19F0C1FAB0EEE5
:103A100040BAF0EE60BA9FEDB70B53EC102B51ECAF
:103A20001B0B1EF075F941EC1A0B1DF06FFEB3492C
:103A3000086068EEA80A48EE080AB0EE600A1BF0BB
:103A4000FFFD20EE090A10EE104A20461EF056FC3B
:103A500041EC1C0BB0EE4C0AF0EE6C0A19F098FA2F
:103A6000B0EE40BAF0EE60BA9FEDA50B53EC102B10
:103A700051EC1B0B1EF04CF941EC1A0B1DF046FEED
:103A8000A1490860084690ED000ADFEDA00A20EE8B
:103A9000200A10EE101A08461EF030FC41EC1B0BF9
:103AA000B0EE4B0AF0EE6B0A1AF04EF9B0EE40AAF7
:103AB000F0EE60AA51EC1A0B1DF028FE9449086044
:103AC000914890ED000ADFED910A20EE200A10EEF9
:103AD000101A08461EF012FC41EC1B0BB0EE4B0A0C
:103AE000F0EE6B0A19F0B8FCB0EE40AAF0EE60AA56
:103AF00051EC1A0B1DF00AFE864908607F4890EDD4
:103B0000000ADFED820A20EE200A10EE101A0846A5
:103B10001EF0F4FB41EC1B0BB0EE4B0AF0EE6B0A0F
:103B20001AF012F9B0EE40AAF0EE60AA51EC1A0BAE
:103B30001DF0ECFD78490860704890ED000ADFED5B
:103B4000730A20EE200A10EE101A08461EF0D6FB6B
:103B500041EC1B0BB0EE4B0AF0EE6B0A19F07CFC4B
:103B6000B0EE40AAF0EE60AA51EC1A0B1DF0CEFDAB
:103B70006A49086008E005201BF002F85748283819
:103B8000FEF756FB66490870654800780028F2D0B9
:103B90005248403890ED060A6248D0ED000A30EEF7
:103BA000600A8DED010A4D48403890ED070A5D48E6
:103BB000D0ED010A30EE600A8DED020A4748403828
:103BC00090ED080A5748D0ED020A30EE600A8DEDFC
:103BD000030A9DED010A5148D0ED000A20EE200AAB
:103BE000DDED030A4C4890ED001A00EE810A4E48C4
:103BF00080ED000A9DED010A4548D0ED000A20EE57
:103C0000200A4548D0ED000A20EE200ADDED020A28
:103C1000404890ED001A00EE810ADDED030A3C48B1
:103C200090ED001A60EE810A3C4890ED001A00EE1B
:103C3000C10A3D4880ED010A90ED010A10EE101A0C
:103C400008461EF05BFB41EC1C0B374890ED000A68
:103C500010EE101A08461EF051FB41EC1D0BB0EEA1
:103C60004C1AF0EE6C1AB0EE4D0AF0EE6D0A19F037
:103C7000FBFAB0EE40BAF0EE60BA9FED2C0B53ECBD
:103C8000102B51EC1B0B1EF043F841EC1A0B1DF0EE
:103C90003DFD28490860194890ED000ADFED1B0A38
:103CA00020EE200A244880ED000A174890ED000A13
:103CB000DFED160A20EE200A204880ED000A0846B3
:103CC00090ED000ADFED110A20EE200A1C4880ED7D
:103CD000000A04B0BDEC0C8B10BD0000784300203E
:103CE00014620020000000460AE81C41280D002054
:103CF0005C6200206666666666A64CC0180D0020F1
:103D00006666666666A64C40140D002035FA8E3C49
:103D10003C0D0020480D0020400D00204C0D0020DF
:103D2000540D0020302100203402002000000060EB
:103D3000E3A54C401C0D00205C0D0020580D002018
:103D4000600D002000B599B00020129013901490DF
:103D5000FE4890ED000ADFEDFE0A60EE200A9FEDBE
:103D6000FD1A80EE810AFC48D0ED000AFB4890ED78
:103D7000031A10EE810AFA4880ED000AF34890ED2C
:103D8000010ADFEDF30A60EE200A9FEDF21A80EEE1
:103D9000810AF148D0ED010AF04890ED041A10EEC6
:103DA000810AEF4880ED010AE84890ED020ADFED54
:103DB000E80A60EE200A9FEDE71A80EE810AE648E5
:103DC000D0ED020AE54890ED051A10EE810AE448AC
:103DD00080ED020A90ED000A8DED170A90ED010AC0
:103DE0008DED160A90ED020A8DED150A9DED160A6D
:103DF00060EE000A9DED150A40EE000ACDED0A0ABC
:103E00009DED0A0A1BF01CFCDDED170A20EE200ACE
:103E10008DED0B0A0B981EF071FACDE90C019DEDAA
:103E20000C0B19F0B5F88DED0E0B9FEDCE0B53EC8E
:103E3000102B9DED0E0B51EC100B1DF069FFCDE921
:103E400010019DED100B51EC100B1DF05FFCC749EC
:103E500008609DED170A20EE000ADDED150A00EE60
:103E6000A00A8DED0A0A9DED0A0A1BF0E9FBDDEDC3
:103E7000160A20EE200A8DED0B0A0B981EF03EFA72
:103E8000CDE90C019DED0C0B19F082F88DED0E0BB8
:103E90009FEDB70B53EC102B9DED0E0B51EC100B5F
:103EA0001DF036FFCDE910019DED100B51EC100B0C
:103EB0001DF02CFCB0490860084690ED000ADFEDCB
:103EC000AF0A20EE200A8DED0D0A0D981EF016FAAD
:103ED000CDE90E019DED0E0B19F036FF8DED100BA7
:103EE0009DED100B51EC100B1DF010FCA449086067
:103EF000A14890ED000ADFEDA10A20EE200A8DED29
:103F00000D0A0D981EF0FAF9CDE90E019DED0E0B8C
:103F100019F0A2FA8DED100B9DED100B51EC100B6A
:103F20001DF0F4FB97490860904890ED000ADFED22
:103F3000930A20EE200A8DED0D0A0D981EF0DEF991
:103F4000CDE90E019DED0E0B19F0FEFE8DED100B6F
:103F50009DED100B51EC100B1DF0D8FB8A49086049
:103F6000824890ED000ADFED850A20EE200A8DEDF3
:103F70000D0A0D981EF0C2F9CDE90E019DED0E0B54
:103F800019F06AFA8DED100B9DED100B51EC100B32
:103F90001DF0BCFB7D490860704890ED060A7C4826
:103FA000D0ED000A30EE600A8DED120A6B4890EDFC
:103FB000070A7748D0ED010A30EE600A8DED130A4A
:103FC000664890ED080A7248D0ED020A30EE600AA9
:103FD0008DED140ADDED120A084690ED000A20EE80
:103FE000800ADDED140A684890ED001A00EE810A9F
:103FF000684880ED000A9DED120A6148D0ED000A84
:1040000020EE200A6048D0ED000A20EE200A9DED47
:10401000131A5C48D0ED000A01EE200ADDED140A07
:10402000574890ED001A60EE810A084690ED001A9C
:1040300000EEC10A574880ED010A406809901EF061
:104040005DF9CDE90C015348006809901EF056F95E
:10405000CDE90A019DED0C1B9DED0A0B19F004F949
:104060008DED0E0B9FED4C0B53EC102B9DED0E0BBD
:1040700051EC100B1DF04CFECDE910019DED100B25
:1040800051EC100B1DF042FB45490860374890ED9C
:10409000000ADFED3A0A20EE200A424880ED000ACD
:1040A000354890ED000ADFED350A20EE200A3E4843
:1040B00080ED000A084690ED000ADFED300A20EEA0
:1040C000200A3A4880ED000A3748D0ED000AB0EEE9
:1040D000001A80EE810A8DED050A05981EF00EF992
:1040E000CDE906019DED060B19F02EFE8DED0A0BB4
:1040F0002C48D0ED000AB0EE001A80EE810A8DED5A
:10410000010A01981EF0FAF8CDE902019DED020BBB
:1041100019F01AFE8DED060B244890ED001AF0EE12
:10412000000A81EE200A8DED010A01981EF0E6F8E2
:10413000CDE902019DED020B19F006FE8DED040B99
:104140009DED060B53EC102B32E0000014620020B2
:10415000000000460AE81C41280D002038430020DA
:104160005C6200206666666666A64CC0180D00207C
:104170006666666666A64C40140D002035FA8E3CD5
:104180003C0D0020480D0020400D00204C0D00206B
:10419000302100203402002000000060E3A54C40E4
:1041A0001C0D00205C0D0020580D0020600D00202B
:1041B0009DED040B51EC100B1DF0AAFDCDE908019B
:1041C0009DED0A0B53EC102B9DED080B51EC100BE1
:1041D0001DF09EFDCDE90E01FE48D0ED000AB0EEC7
:1041E000001A80EE810A8DED050A05981EF086F80A
:1041F000CDE906019DED060B19F02EF98DED0A0BA8
:10420000F548D0ED000AB0EE001A80EE810A8DED7F
:10421000010A01981EF072F8CDE902019DED020B32
:1042200019F01AF98DED060BEC48D0ED000AB0EE4E
:10423000001A80EE810A8DED010A01981EF05EF8E9
:10424000CDE902019DED020B19F006F98DED040B8D
:104250009DED060B53EC102B9DED040B51EC100B58
:104260001DF056FDCDE908019DED0A0B53EC102B16
:104270009DED080B51EC100B1DF04AFDCDE90C0132
:104280009DED0E0B53EC102B9DED0C0B51EC100B18
:104290001DF06EFACDE910019DED100B51EC100BE5
:1042A0001DF034FACE490860CA48D0ED000AB0EEDD
:1042B000001A80EE810A8DED050A05981EF01EF8A1
:1042C000CDE906019DED060B19F0C6F88DED0A0B40
:1042D000C148D0ED000AB0EE001A80EE810A8DEDE3
:1042E000010A01981EF00AF8CDE902019DED020BCA
:1042F00019F02AFD8DED060BB848D0ED000AB0EE9E
:10430000001A80EE810A8DED010A01981DF0F6FF7A
:10431000CDE902019DED020B19F016FD8DED040BA8
:104320009DED060B53EC102B9DED040B51EC100B87
:104330001DF0EEFCCDE908019DED0A0B53EC102BAE
:104340009DED080B51EC100B1DF0E2FCCDE90E01C8
:10435000A048D0ED000AB0EE001A80EE810A8DED83
:10436000050A05981DF0CAFFCDE906019DED060B73
:1043700019F0EAFC8DED0A0B974890ED001AF0EE6B
:10438000000A81EE200A8DED010A01981DF0B6FFAA
:10439000CDE902019DED020B19F05EF88DED060BE3
:1043A0008E48D0ED000AB0EE001A80EE810A8DED45
:1043B000010A01981DF0A2FFCDE902019DED020B5B
:1043C00019F04AF88DED040B9DED060B53EC102B04
:1043D0009DED040B51EC100B1DF09AFCCDE908018A
:1043E0009DED0A0B53EC102B9DED080B51EC100BBF
:1043F0001DF08EFCCDE90C019DED0E0B53EC102B46
:104400009DED0C0B51EC100B1DF08EFECDE9100153
:104410009DED100B51EC100B1DF078F971490860FF
:104420006C48D0ED000AB0EE001A80EE810A8DEDE6
:10443000050A05981DF062FFCDE906019DED060B0A
:1044400019F082FC8DED0A0B6348D0ED000AB0EE46
:10445000001A80EE810A8DED010A01981DF04EFFD1
:10446000CDE902019DED020B18F0F6FF8DED060B74
:104470005A48D0ED000AB0EE001A80EE810A8DEDA8
:10448000010A01981DF03AFFCDE902019DED020BF2
:1044900019F05AFC8DED040B9DED060B53EC102B1F
:1044A0009DED040B51EC100B1DF032FCCDE9080121
:1044B0009DED0A0B53EC102B9DED080B51EC100BEE
:1044C0001DF026FCCDE90E014248D0ED000AB0EE09
:1044D000001A80EE810A8DED050A05981DF00EFF89
:1044E000CDE906019DED060B18F0B6FF8DED0A0B28
:1044F0003948D0ED000AB0EE001A80EE810A8DED49
:10450000010A01981DF0FAFECDE902019DED020BB2
:1045100019F01AFC8DED060B3048D0ED000AB0EE14
:10452000001A80EE810A8DED010A01981DF0E6FE69
:10453000CDE902019DED020B18F08EFF8DED040B0D
:104540009DED060B53EC102B9DED040B51EC100B65
:104550001DF0DEFBCDE908019DED0A0B53EC102B9D
:104560009DED080B51EC100B1DF0D2FBCDE90C01B9
:104570009DED0E0B53EC102B9DED0C0B51EC100B25
:104580001DF0F6F8CDE910019DED100B51EC100B6C
:104590001DF0BCF8144908600E48D0ED000AB0EEDA
:1045A000001A80EE810A8DED050A05981DF0A6FE21
:1045B000CDE906019DED060B19F0C6FB8DED0A0B4A
:1045C0000548D0ED000AB0EE001A80EE810A8DEDAC
:1045D000010A0BE0580D00205C0D0020600D00204A
:1045E000800D0020840D0020880D002001981DF012
:1045F00085FECDE902019DED020B19F0A5FB8DEDC5
:10460000060B6F48D0ED000AB0EE001A80EE810A6A
:104610008DED010A01981DF071FECDE902019DEDBD
:10462000020B18F019FF8DED040B9DED060B53ECFA
:10463000102B9DED040B51EC100B1DF069FBCDE927
:1046400008019DED0A0B53EC102B9DED080B51EC6E
:10465000100B1DF05DFBCDE90E015A4890ED001ADC
:10466000F0EE000A81EE200A8DED050A05981DF096
:1046700045FECDE906019DED060B18F0EDFE8DED32
:104680000A0B5148D0ED000AB0EE001A80EE810A04
:104690008DED010A01981DF031FECDE902019DED7D
:1046A000020B18F0D9FE8DED060B4548D0ED000A3F
:1046B000B0EE001A80EE810A8DED010A01981DF01E
:1046C0001DFECDE902019DED020B19F03DFB8DEDC4
:1046D000040B9DED060B53EC102B9DED040B51ECE0
:1046E000100B1DF015FBCDE908019DED0A0B53ECF5
:1046F000102B9DED080B51EC100B1DF009FBCDE9C3
:104700000C019DED0E0B53EC102B9DED0C0B51ECA1
:10471000100B1DF009FDCDE910019DED100B51ECC2
:10472000100B1CF0F3FF29490860092011902AE0C2
:10473000274890ED000A2749119801EB800080ED91
:10474000000A254890ED000A01F12800119900EBBC
:10475000810080ED000A214890ED000A1D4850308C
:10476000119900EB810080ED000A184890ED000AD5
:1047700018487830119900EB810080ED000A1198FB
:10478000401E00B2119011980028D1DC104890ED25
:10479000000A104880ED000A0F4890ED000A0D480D
:1047A00080ED0A0A0D4890ED000A0A4880ED140ACF
:1047B000064890ED000A074880ED1E0A19B000BDBA
:1047C000600D0020580D00205C0D00208C0D002095
:1047D000800D002074610020840D0020880D0020D1
:1047E0000348006840F47000014908607047000009
:1047F00088ED00E00348006840F04040014908604F
:104800007047000034EF00E000B5B0EE402AB0EE93
:10481000420A00F003F820EE020A00BD08B5F0EEEF
:10482000400ACDED000A0C490098A1EB5000009021
:104830009FED0A0A20EE800A9DED001A20EE011A73
:10484000DDED001A9FED060A01EE610A9DED001AEA
:1048500020EE010A08BD000012141F5F12D3363F7C
:10486000FF51D83FF0EE401A9FED570AF4EEC01A00
:10487000F1EE10FA06DC9FED550AF4EEC01AF1EEE7
:1048800010FA02D29FED520A7047BDEEE10AB8EE6F
:10489000C04A71EEC44AB6EE001AF5EEC01AF1EE47
:1048A00010FA03D8B1EE410AB0EE401A9FED495A12
:1048B000B0EE410A01EE850ABDEEC00A10EE100A04
:1048C00000EE100AF8EEC03A9FED435AB0EE440AEB
:1048D00003EEC50AF0EE400A30EEA40AF0EE400AFC
:1048E0009FED3E5AB0EE600A03EEC50AF0EE400AB4
:1048F0009FED3B5AB0EE600A03EEC50AF0EE400AA7
:10490000F5EEC00AF1EE10FA04D2B1EE600AB0EE94
:10491000401A01E0B0EE601A9FED320AB4EEC01A00
:10492000F1EE10FA0CD200F0010121B1BFEE000A45
:10493000C0EE202A01E0F0EE602AB0EE620AA3E7A2
:1049400020EEA00AB0EE401A9FED270A21EE000AE1
:10495000B0EE402A9FED250A32EE000AB0EE402A62
:1049600022EE010AB0EE402A22EE200AB0EE402AE2
:1049700032EE200AB0EE402A9FED1D0A21EE000A19
:10498000B0EE403A9FED1B0A33EE000AB0EE403A1B
:1049900023EE010AB0EE403AB7EE000A33EE000A09
:1049A000B0EE403A00F0010139B1F0EE422AB1EE2A
:1049B000430AB0EE402AB0EE623A82EE030AF0EE0D
:1049C000402AB0EE620A5FE7192C0E46192C0EC67B
:1049D0000000000083F9223F0000C93F0000FE39BB
:1049E000D3BB2BB5F304B53935EC8C3A7811E4BD63
:1049F000A2DA823C08AFE3BE70B52DED028B04460F
:104A0000B0EE408AF0EE608A0025FE4801F048FCD6
:104A100040F2DC50FC490880FA4890ED020ADFEDD4
:104A2000FB0A20EE200ADFEDFA0AB4EEE00AF1EE0E
:104A300010FA00DB0125F7480078A04200D00125DC
:104A4000F448047024B1012C79D0022C78D158E1BB
:104A5000F14890ED270AB5EEC00AF1EE10FA23D125
:104A6000EE4890EDFD0AB5EEC00AF1EE10FA01D065
:104A7000012D05D1EA4890ED000AE84880EDFD0AD5
:104A8000E74890ED000AE54880EDFE0A00F57C70ED
:104A90000BF050FCE34890ED0C0AA83080ED010AC1
:104AA0000020E14908702CE0DB4890ED270AB5EEC4
:104AB000C00AF1EE10FA0EDD90ED270AD948A830B1
:104AC00080ED010A9FEDD90AD44880EDFD0A01204E
:104AD000D549087015E0D04890ED270AB5EEC00A18
:104AE000F1EE10FA0DD290ED270ACE48A83080EDF5
:104AF000010A9FEDCE0AC94880EDFD0A0220CA498D
:104B00000870C74890ED030AC648A83080ED020A35
:104B10000BF0FEFCC4480078012812D1C148A8302F
:104B2000D0ED0C0AB0EE600A9FEDC11ADFEDC10AAC
:104B300019F0DCFFBB48A83080ED0C0A15E03CE022
:104B4000A4E1B948007802280FD1B648A830D0EDCA
:104B50000C0AB0EE600A9FEDB81ADFEDB80A19F042
:104B6000C5FFB048A83080ED0C0AAE48A83090EDE3
:104B70000C0A00F5527080ED010AB14890ED000A70
:104B8000B04880ED020A0BF0D5FBAE4890ED010A6B
:104B90009FEDAD1AC0EE010A90ED0C0A90ED071AD8
:104BA000DFEDAA1A31EE211ADFEDA91A31EE611AF2
:104BB00001EE200A80ED0C0A68E1974890ED270A83
:104BC000B5EEC00AF1EE10FA15D1944880EDFD8AD9
:104BD000934890ED000A914880EDFE0A91480BF051
:104BE000A9FB904890ED0C0AA83080ED010A002046
:104BF0008D4908702CE0884890ED270AB5EEC00A70
:104C0000F1EE10FA0EDD90ED270A8648A83080ED0F
:104C1000010A9FED860A814880EDFD0A0120824944
:104C2000087015E07C4890ED270AB5EEC00AF1EE59
:104C300010FA0DD290ED270A7A48A83080ED010ACB
:104C40009FED7A0A754880EDFD0A022076490870CA
:104C5000734890ED030A7348A83080ED020A0BF008
:104C600057FC71480078012810D16E48A830D0ED6B
:104C70000C0AB0EE600A9FED6E1ADFED6E0A19F0B5
:104C800035FF6848A83080ED0C0A13E066480078CC
:104C900002280FD16348A830D0ED0C0AB0EE600AAC
:104CA0009FED651ADFED650A19F020FF5D48A83019
:104CB00080ED0C0A5B48A83090ED0C0A614880ED4D
:104CC000010A5F4890ED000A5E4880ED020A0BF091
:104CD00031FB5C4890ED010A9FED5B1AC0EE010AC2
:104CE00090ED0C0A90ED071ADFED581A31EE211AFB
:104CF000DFED571A31EE611A01EE200A80ED0C0A41
:104D0000C4E0454890ED270AB5EEC00AF1EE10FA6E
:104D10000CD19FED460A414880EDFD0A00F59360F5
:104D2000C0ED018A0020404908702CE03A4890ED1F
:104D3000270AB5EEC00AF1EE10FA0EDD90ED270A53
:104D40003848A83080ED010A9FED380A334880EDDD
:104D5000FD0A01203449087015E02F4890ED270A1C
:104D6000B5EEC00AF1EE10FA0DD290ED270A2D48EB
:104D7000A83080ED010A9FED2D0A284880EDFD0A3C
:104D8000022029490870264890ED030A2548A830DA
:104D900080ED020A0BF0BCFB23480078012810D1FB
:104DA0002048A830D0ED0C0AB0EE600A9FED201A22
:104DB000DFED200A19F09AFE1A48A83080ED0C0A9F
:104DC00013E01948007802280FD11648A830D0ED1A
:104DD0000C0AB0EE600A9FED181ADFED180A19F000
:104DE00085FE1048A83080ED0C0A0E48A83090EDE2
:104DF0000C0A144880ED010A114890ED000A114890
:104E000028E0000070570020780B00206F12833AD2
:104E1000CCCC4C3DA00A0020443100206022002070
:104E20004832002050260020A10A00200000000087
:104E30000000C8430000C8C300007A4300007AC3E2
:104E400048410020402A0020000075440080BB44F7
:104E50000040834480ED020A0BF06CFA164890ED96
:104E6000010A1FED071AC0EE010A90ED0C0A90ED41
:104E7000071A5FED0A1A31EE211A5FED0B1A31EEB7
:104E8000611A01EE200A80ED0C0A00BF00BF0A483B
:104E9000D0ED0C0A0948008800EE100AB8EE400A6E
:104EA00030EE800ABDEEC00A10EE100A04490880F8
:104EB000BDEC028B70BD0000402A0020780B002062
:104EC0007A0B002010B5B0EE000A164B83ED000AF5
:104ED0001B789BB990ED000A124B83ED000A1B78FA
:104EE0008B54104B5C78531CCC540E4B9C78931C09
:104EF000CC540C4BDC78D31CCC5412E090ED000A5F
:104F0000084B83ED000ADB788B54064B9C78531CCE
:104F1000CC54044B5C78931CCC54024B1C78D31CAF
:104F2000CC5410BDE009002010B53D480088401C5D
:104F30003B49088008460088142848DB0020088088
:104F4000384890F83D0001283ED1374908700020CC
:104F500036490870334981F83D009FED350A3548E0
:104F600080ED010A084690ED100A324880ED020AF1
:104F7000084690F83A102F480BF01EFD2D4890ED92
:104F80000C0AB1EE400A2C4880ED000A9FED2B0A76
:104F90002848A83080ED010A224890ED0D0A2548E6
:104FA000A83080ED020A1F4890F83A102148A83036
:104FB0000BF002FD1F48A83090ED0C0AB1EE400A3C
:104FC0001D4880ED010A02E00120184908701748C9
:104FD000007801281BD11448007801280FD1022045
:104FE000114908709FED120A134880ED000A9FEDE9
:104FF000100A80ED010A01200AF062FC0EE00A4866
:10500000007802280AD100200AF05AFC06E00A487B
:10501000D0ED010A90ED000A0AF03AFF10BD000041
:10502000D60C0020A0600020D50C0020D80C002059
:1050300000000000882D00209C0C00200000C842C9
:1050400002F001031BB1D0F800340B4302E0D0F8AA
:1050500000348B43C0F8003402F002031BB1D0F8D7
:1050600020340B4302E0D0F820348B43C0F82034C6
:105070007047C0F81C147047D0F810240A43C0F8D9
:105080001024704770B504460D46204617F0FAFC10
:1050900006462946304601F02FFF304601F0BAFEA1
:1050A00070BD02F001031BB1D0F808340B4302E0DD
:1050B000D0F808348B43C0F8083402F002031BB167
:1050C000D0F804340B4302E0D0F804348B43C0F82A
:1050D000043402F004031BB1D0F80C340B4302E09B
:1050E000D0F80C348B43C0F80C3402F4803323B175
:1050F000D0F8383543F0010303E0D0F8383523F019
:105100000103C0F838357047F0B502F001051DB154
:10511000D0F800550D4302E0D0F800558D43C0F89B
:10512000005502F002051DB1D0F804550D4302E010
:10513000D0F804558D43C0F8045502F004051DB1A4
:10514000D0F808550D4302E0D0F808558D43C0F85B
:10515000085502F008051DB1D0F818550D4302E0BE
:10516000D0F818558D43C0F8185502F010051DB140
:10517000D0F83C550D4302E0D0F83C558D43C0F8C3
:105180003C55002416E00125A5400D4085B1D0F81E
:10519000C45F67000326BE40B543C0F8C45FD0F8C3
:1051A000C45F6700C2F34116BE403543C0F8C45F18
:1051B000651CECB2082CE6DB03F001051DB1D0F84C
:1051C0000C550D4302E0D0F80C558D43C0F80C553A
:1051D00003F002051DB1D0F810550D4302E0D0F8E0
:1051E00010558D43C0F8105503F004051DB1D0F8DB
:1051F00014550D4302E0D0F814558D43C0F81455F2
:1052000003F008051DB1D0F81C550D4302E0D0F89D
:105210001C558D43C0F81C5503F400751DB1D0F822
:1052200044550D4302E0D0F844558D43C0F8445531
:1052300003F440751DB1D0F840550D4302E0D0F89D
:1052400040558D43C0F840551BB9D0F828550D4343
:1052500002E0D0F828558D43C0F82855F0BD000075
:1052600010B50146C1F307400F4BDB6E01248440AB
:10527000234033B1012303EB40030C4C54F82300CB
:1052800003E04300094C54F82300C1F30722D0F88F
:105290002C350F249440A34301F00F049440234382
:1052A000C0F82C3510BD000000E00F40742502004E
:1052B0000246002000EB81001058704730B50446CC
:1052C0000D46002229462046FFF7BAFE00230122A0
:1052D00029462046FFF718FF30BD30B504460D467D
:1052E000002229462046FFF7ABFE0823012229466B
:1052F0002046FFF709FF30BD30B504460D460823B0
:10530000012229462046FFF7FFFE012229462046BA
:10531000FFF796FE30BD30B504460D460222294601
:105320002046FFF78DFE0923012229462046FFF77C
:10533000EBFE30BD30B504460D460222294620461C
:10534000FFF77EFE0823012229462046FFF7DCFEF8
:1053500030BD30B504460D46022229462046FFF7EF
:105360006FFE0823012229462046FFF7CDFE30BDFF
:1053700030B504460D46022229462046FFF760FE5E
:105380000823012229462046FFF7BEFE30BD002338
:1053900003EB8103C250704710B50446227CD1B2A2
:1053A000E068FFF7F4FF10BD1FB5002002900390E6
:1053B0002948006829498860294800684860D1E97F
:1053C0000101CDE9000125480368264807C81AF005
:1053D000FFFB8DED020ACDED030A9DED020ADFED24
:1053E000220A20EE200A8DED020A9DED030ADFED70
:1053F0001E0A20EE200A8DED030A9DED030A1B48CC
:1054000080ED000A9DED020A80ED010A9DED020A81
:105410001748D0ED000A20EE200ADDED030A1548FA
:1054200090ED001A00EE810A134880ED010A9DED0F
:10543000020AB1EE400A0F48D0ED000A20EE200A21
:10544000DDED030A0A4890ED001A00EE810A0A48D1
:1054500080ED020A1FBD000098010020A842002034
:105460009C0100209C4200200000C8429042002085
:10547000500D0020440D00208442002010B50F483C
:105480000088401C0D49088008460088142814DB59
:105490000B484088632803DA6A200A49088002E042
:1054A00006200849088000F011F812F0A3F9012045
:1054B0000549087000200149088010BD1A0200202B
:1054C00090450020180200208601002010B52DED27
:1054D000048BFE4813F0C2F8FD4890ED000BFD4828
:1054E00080ED000BFC4890ED000BFC4880ED000BBC
:1054F000FB4890ED000AFB4880ED000AF84890ED6B
:10550000010AF84880ED010AF54890ED020AF548D5
:1055100080ED020AF448F54909880831405C0830FA
:10552000F3490860F048F14909880931405CF049C5
:105530004860ED48ED4909880A31405CEC498860D3
:10554000E948EA4909881431405CEA490870E648AC
:10555000E64909881531405C00F00100E649087011
:10556000E148E24909881531405CC0F34000E24956
:105570004870DD48DD4909881531405C00F03A008B
:105580008010DD498870D848D84909881531405CB9
:1055900000F02000D849C870D8480088D849088051
:1055A000D148D24909881731405CD4490880CE4897
:1055B000CE4909881831425CCC4909881931405CD0
:1055C00002EB0022C848C94909881A31405C02EB45
:1055D0000042C549C54800881B30085C02EB0060EA
:1055E000C8490860084690ED000AB8EEC00ADFED31
:1055F000C60A20EE200A10EE101A08461CF07EFEA5
:10560000B34A03C2B848B94909881C31425CB7495A
:1056100009881D31405C02EB0022B348B349098878
:105620001E31405C02EB0042AF48B04909881F318F
:10563000405C02EB0060B5490860084690ED000A46
:10564000B8EEC00ADFEDB00A20EE200A10EE101A04
:1056500008461CF053FEA04A03C29D4890ED000B83
:1056600051EC100B1CF090FA04461CF0EAFAA84A20
:1056700003C2A74890ED000B53EC102B944890ED1B
:10568000000B51EC100B1CF04FFD41EC190B9FED82
:10569000A10B53EC102B1CF03BFB41EC180B1CF046
:1056A00073FA04461CF0CDFA9C4A03C28A4890ED76
:1056B000000B51EC100B1CF067FA04461CF0C1FA09
:1056C000974A03C2964890ED000B53EC102B82488A
:1056D00090ED000B51EC100B1CF026FD41EC190B6A
:1056E0009FED8C0B53EC102B1CF012FB41EC180BB4
:1056F0001CF04AFA04461CF0A4FA8A4A03C27A480B
:105700007A4909882431425C784909882531405C0E
:1057100002EB00227448754909882631405C02EB8F
:1057200000427148714909882731405C02EB0060F2
:1057300000EE100AB8EEC00A7B4880ED000A90ED3A
:10574000000ABDEEC00A794880ED000A764890ED67
:10575000000ADFED770A80EE201A80ED001A624819
:10576000624909882831425C604909882931405CD6
:1057700002EB00225C485D4909882A31405C02EB5B
:1057800000425948594909882B31405C02EB0060BE
:1057900000EE100AB8EEC00A664880ED000A90EDEF
:1057A000000ADFED650A20EE200A80ED000A4E486F
:1057B0004E4909882C31425C01464C4800882D3006
:1057C000085C02EB0022494800882E30085C02EB9E
:1057D0000042464800882F30085C02EB006000B2AF
:1057E000564908800846B0F9000000EE100AB8EEED
:1057F000C00ADFED530A20EE200ABDEEC00A10EE0B
:10580000100A00B208803848384909883031425CB3
:10581000364909883131405C02EB00223248334975
:1058200009883231405C02EB00422F482F49098839
:105830003331405C02EB006000EE100AB8EEC00AA3
:10584000274880ED010A90ED010AF2EE040A80EE8D
:10585000201A80ED011A2448244909883431425C19
:105860000146224800883530085C02EB00220846D9
:105870001E4909883631405C02EB00421A481B4938
:1058800009883731405C02EB006000EE100AB8EE88
:10589000C00A134880ED000A90ED000AF2EE040AF7
:1058A00080EE201A80ED001A0F481049098838311F
:1058B000405C00EB00220C480C4909883A31405CFE
:1058C00002EB00420849094800883BE02021002003
:1058D000A801002088010020B001002090010020D4
:1058E00008210020FC2000209645002018020020FE
:1058F000F02000200402002005020020EC0100201E
:10590000EE0100209801002095BFD6339C010020B5
:10591000C001002000000000D0126341D00100202F
:10592000C8010020D801002014020020A00100209E
:1059300000007A440C0200206F12833A100200200B
:105940000AD7233C3B30085C02EB006000EE100AF3
:10595000B8EEC00A774880ED020A90ED020AFAEE2E
:10596000040A80EE201A80ED021A90ED010A7248B6
:1059700080ED000A6F4890ED000A6F4880ED010A43
:10598000881F90F84220801D6C4909883D31405C99
:1059900002EB00226A48694909883E31405C02EB0B
:1059A00000426748654909883F31405C02EB00606E
:1059B00000EE100AB8EEC00A624880ED000A90EDD1
:1059C000000AF2EE040A80EE201A80ED001A5C480C
:1059D0005A4909884031425C584909884131405C44
:1059E00002EB00225648554909884231405C02EBDF
:1059F00000425349514800884330085C02EB006084
:105A000000EE100AB8EEC00A4F4880ED000A90ED93
:105A1000000ADFED4E0A20EE200A80ED000A08465B
:105A2000464909884431425C444909884531405C13
:105A300002EB00224248414909884631405C02EBB2
:105A400000423F483D4909884731405C02EB006015
:105A500000B23F4908800846B0F9000000EE100A85
:105A6000B8EEC00ADFED3B0A20EE200ABDEEC00A08
:105A700010EE100A00B208803148304909884C31D4
:105A8000425C2E4909884D31405C02EB002000EE5B
:105A9000100AB8EEC00A304880ED000A90ED000A06
:105AA0005FED590A20EE200A80ED000A90ED000A11
:105AB0002A4880ED000A1F4890ED000A2848D0EDE2
:105AC000000A30EE600A5FED660A20EE200A2548E3
:105AD000D0ED020A80EE201A234880ED001A154806
